{
  "contractName": "ZOSChainlinked",
  "abi": [
    {
      "anonymous": false,
      "inputs": [
        {
          "indexed": false,
          "name": "id",
          "type": "bytes32"
        }
      ],
      "name": "ChainlinkRequested",
      "type": "event"
    },
    {
      "anonymous": false,
      "inputs": [
        {
          "indexed": false,
          "name": "id",
          "type": "bytes32"
        }
      ],
      "name": "ChainlinkFulfilled",
      "type": "event"
    },
    {
      "anonymous": false,
      "inputs": [
        {
          "indexed": false,
          "name": "id",
          "type": "bytes32"
        }
      ],
      "name": "ChainlinkCancelled",
      "type": "event"
    },
    {
      "constant": false,
      "inputs": [],
      "name": "initialize",
      "outputs": [],
      "payable": false,
      "stateMutability": "nonpayable",
      "type": "function"
    }
  ],
  "bytecode": "0x6080604052600160045534801561001557600080fd5b506101d2806100256000396000f300608060405260043610610041576000357c0100000000000000000000000000000000000000000000000000000000900463ffffffff1680638129fc1c14610046575b600080fd5b34801561005257600080fd5b5061005b61005d565b005b6000600660019054906101000a900460ff168061007e575061007d610195565b5b806100965750600660009054906101000a900460ff16155b1515610130576040517f08c379a000000000000000000000000000000000000000000000000000000000815260040180806020018281038252602e8152602001807f436f6e747261637420696e7374616e63652068617320616c726561647920626581526020017f656e20696e697469616c697a656400000000000000000000000000000000000081525060400191505060405180910390fd5b600660019054906101000a900460ff1690506001600660016101000a81548160ff0219169083151502179055506001600660006101000a81548160ff02191690831515021790555080600660016101000a81548160ff02191690831515021790555050565b600080303b905060008114915050905600a165627a7a7230582047d43be2d8fc1cf08ac3d3a99b980653f4a593d927aead1689eaf126d207990a0029",
  "source": "pragma solidity 0.4.24;\n\nimport \"chainlink/solidity/contracts/Chainlinked.sol\";\nimport \"zos-lib/contracts/Initializable.sol\";\n\ncontract ZOSChainlinked is Chainlinked, Initializable {\n\n  function initialize() initializer public {}\n}",
  "sourcePath": "/home/thomas/workspace/ZosChainlinked/contracts/ZOSChainlinked.sol",
  "compiler": {
    "name": "solc",
    "version": "0.4.24+commit.e67f0147.Emscripten.clang"
  },
  "schemaVersion": "2.0.1",
  "updatedAt": "2018-12-18T15:32:08.993Z"
}